:020000040000FA
:1000000083160330880000308600850003178801BE
:10001000890183120313860188010230DE0008186B
:100020001528122888181F281828881841282628DB
:1000300001308607860B562880308600562801300E
:100040008607860B5B28013086005B280330AE00F4
:100050002E086A2086006120AE0B28282E086A2010
:10006000860061200130AE072E086A2086006120DC
:100070000230AE022E0B3E2886010F280230AE075A
:10008000322801308607860B482801308600482830
:10009000861F4E280130DE00DE074E28061C53283E
:1000A0000130DE0253285E0B56285B2861200310C6
:1000B000060C86000F2861200310060D8600060F2F
:1000C0000F28FF30BE00BE0B66280800CE00CE0B06
:0E00D0006728632882071834243442348134B0
:02400E00E428A4
:02401000FF3E71
:00000001FF
