:020000040000FA
:1000000083160330850000308800860087000317C0
:100010008801890183120313880185018601870104
:100020000630AF00851C15281828051C1B28392808
:10003000051C5A287C28013088002F0B31206F08BE
:100040009E2086006F08A9208700EF0AFE20093055
:10005000EF026F0B2E280230AF0012280930EF0795
:1000600012280030EF000130AF00FF30860087001B
:10007000080002308800AF032F0B4D206F08CA2004
:1000800086006F08D7208700EF0AFE200B30EF02B2
:100090006F0B55280430AF0012280030EF000230FB
:1000A000AF00FF308600870008000B30EF070230FA
:1000B000AF00122804308800AF03AF032F0B742069
:1000C0006F08B42086006F08BF208700EF0AFE206B
:1000D0000930EF026F0B6F280230AF001228093091
:1000E000EF070330AF0012280030EF000330AF00FD
:1000F000FF30860087000800083088000330AF0218
:100100002F0B91206F08E42086006F08F1208700F4
:10011000EF0AFE200B30EF026F0B99280330AF007F
:1001200012280030EF000430AF00FF308600870057
:1001300008000B30EF070430AF0012288207333479
:10014000FF34CF34C0340C3438340C340C343334F2
:1001500000348207FA34DD34FF34DD347734673419
:100160007734FF347734FF34820733348834CF3424
:10017000C0340C3438340C340C343334003482073B
:10018000FA347734FF34DD34773467347734FF342E
:100190007734FF3482073334FF34CF34CC34CC345B
:1001A00000340334CC340C343834C0340034820787
:1001B000FA34DD34FF34DD34BB34EF34FF34DD3466
:1001C00077346734DD34FF34820733348834CF34F6
:1001D000CC34CC3400340334CC340C343834C03414
:1001E00000348207FA347734FF34DD34BB34EF3423
:1001F000FF34DD3477346734DD34FF340330BF003F
:100200001630CF00E930DF00DF0B0429CF0B0429C3
:06021000BF0B04290800E9
:02400E00E428A4
:02401000FF3E71
:00000001FF
