:020000040000FA
:10000000831600308500860003178801890183125A
:10001000031385018601EF018F01FF019F01472036
:10002000EF0A0930EF026F0B39280030EF00182873
:10003000FF0A0530FF027F0B20280030FF00232835
:100040000530FF070F288F0A09308F020F0B362863
:1000500000308F002B289F0A05309F021F0B33288A
:1000600000309F000F2805309F070F2809308F07A9
:100070000F280930EF070F288207FC346034DA3488
:10008000F2346634B634BE34E234FE34E634000072
:100090000230BF000A30CF005030DF00DF0B5528A0
:1000A000CF0B4C28BF0B4A28080057204E28083099
:1000B00085006F083C2086007020043085007F0892
:1000C0003C2086007020023085000F083C2086000E
:1000D0007020013085001F083C2086007020080039
:1000E0000130AA000A30BA000530CA00CA0B7628CF
:0A00F000BA0B7428AA0B722808004E
:02400E00E428A4
:02401000FF3E71
:00000001FF
