:020000040000FA
:10000000831600308500860003178801890183125A
:100010000313850186010030A7000130A6000230DD
:10002000A5000330A4004D20A70AA60AA50AA40A29
:100030001130A702A602A502A402270B2E28003029
:10004000A700260B31280030A600250B34280030ED
:10005000A500240B37280030A40013281130A7076F
:1000600021281130A60725281130A507292811308D
:10007000A407132882076E34FC341C34EE34003499
:10008000CE34EE34CE3460349C34FC34B634003498
:10009000DA34FC34DA34F234EE340230A1000A30BF
:1000A000A2005030A300A30B5A28A20B5128A10B89
:1000B0004F2808005C2053280830850024083A2087
:1000C000860075200430850025083A2086007520BA
:1000D0000230850026083A20860075200130850010
:1000E00027083A208600752008000130A8000A3051
:1000F000A9000530B000B00B7B28A90B7928A80B0C
:040100007728080054
:02400E00E428A4
:02401000FF3E71
:00000001FF
