:020000040000FA
:100000008316003088008600870003178801890165
:10001000831203138801860187010030A700013095
:10002000A6000230A5000330A400B020A70AA60A4B
:10003000A50AA40A3830A702A602A502A402270B2B
:1000400030280030A700260B33280030A600250BEF
:1000500036280030A500240B39280030A4001528CC
:100060003830A70723283830A60727283830A507B7
:100070002B283830A40715288207F334FF34FC34CA
:100080003334C734FF340034CF34F034C334CF3486
:1000900000343F34FC34F334CC34CF340034CC342B
:1000A000CF34C734CF34C0343334F034F034CF34A9
:1000B0000034FF34CC343F34CF3400343F34333455
:1000C000CC34CF34CC3433340334CF340034F33431
:1000D000BB34F334FC34CF343F34C734FF34CC3436
:1000E0000034F034FF343F34FF3400348207883466
:1000F000103400342234883400340034883400341E
:100100008834883400342A340034883411348834F4
:10011000003405348834983488344434223400342C
:1001200000348834003400341134223488340034EC
:100130002234223411348834053422342234883471
:1001400000348834883400340034883422349834BD
:10015000003411340034003400342A3400340034C4
:100160000230A1000A30A2000530A300A30BBD2875
:10017000A20BB428A10BB2280800BF20B628083073
:10018000880027083C208600270876208700E42086
:100190000430880026083C20860026087620870048
:1001A000E4200230880025083C20860025087620BF
:1001B0008700E4200130880024083C2086002408C1
:1001C00076208700E42008000130A8000A30A9004A
:1001D0000530B000B00BEA28A90BE828A80BE628E8
:0201E000080015
:02400E00E428A4
:02401000FF3E71
:00000001FF
