:020000040000FA
:100000008501860187018801831603138701880112
:1000100000309F003F3085000030860083121C2096
:10002000B60136088F2086002820B60A0D30B602A9
:10003000360BA428B60136280810013086002B2084
:100040000C3086002B203C3086002B200814080042
:1000500008142B20080088148620862088100800A9
:100060000810013086002B2008140800C1309F00C2
:100070009F1481209F183A281E080810C13086005E
:100080002B20081436089E2086002820B60A04304B
:10009000B602360BA728B60153200810C0308600E0
:1000A0002B2008143828B401B301B2011E081E0722
:1000B000B50064303502031C6028B500B40A592825
:1000C0000A303502031C6728B500B30A60283508DA
:1000D000B200B5013030B204B304B4043408860071
:1000E0002820330886002820320886002820203067
:1000F00086002820DF308600282043308600282014
:1001000008003030A000A00B832808007030B10038
:100110002030B000B00B8A28B10B88280800820775
:100120002034543445344D34503445345234413401
:1001300054345534523441343A3420348207203414
:1001400020342034203420340D30B60711280430F8
:04015000B6073D2889
:02400E00E428A4
:02401000FF3E71
:00000001FF
