:020000040000FA
:1000000083160130850000308600870003178801C1
:100010008901831203138601850187010030EF00F7
:100020000130ED000518152820286D183D280030F6
:10003000EF000130ED00FF3086008700BC203D2836
:100040006D1C2A280030EF00ED00FF30860087008D
:10005000BC202A286F08502086006F086D2087007A
:100060000130EF07BC201B30EF026F0B3A28013044
:10007000ED0012281B30EF0712286F088A20860037
:100080006F08A32087000130EF07BC201730EF0274
:100090006F0B4D280030ED0012281730EF071228A3
:1000A00082073F34CC340C34FC3400343834FF3411
:1000B00030340F34C0343034CC343834FF34383436
:1000C000003433340C3438340034FF3438343034B2
:1000D00038340C34C0340C3444348207BB34DD343F
:1000E000FF34DD34FF346734FF347734FF34DD34DC
:1000F0007734DD346734FF346734FF34FA347734CF
:100100006734FF34FF347734773467347734DD3441
:100110007734773482073F340C343F34CC34333473
:10012000FF340034333430343834FF340F34303457
:10013000CC34303438340034FF3400343834FC34B8
:100140000C340434303482076B347734BB34DD3400
:10015000EE34FF34FF34FA3477346734FF34FF343D
:100160007734BB3477346734FF34FF34FF3467347B
:10017000DD347734F73477340730EC001630EB0099
:10018000E930EA00EA0BC228EB0BC228EC0BC228CC
:02019000080065
:02400E00E428A4
:02401000FF3E71
:00000001FF
