:020000040000FA
:100000008316003086008800031788018901831257
:10001000031386018801EF010130081001308600CA
:100020001F200F3086001F203C3086001F20081440
:1000300053280F30EF0753280F30EF07622888143A
:100040002820282088102820080008141F200800D5
:10005000FA30B1006430B000B00B2C28B10B2A2864
:100060000800820720342034203448344F344C3484
:10007000413420344D3455344E3444344F342034DC
:100080002034203482072034203420342034493472
:1000900043344F3420343234303432343334413406
:1000A0002034203420346F08312086002520EF0AC8
:1000B0000F30EF026F0B19280810C03086001F2088
:1000C0000814EF016F08422086002520EF0A0F3048
:1000D000EF026F0B1C280810073086001F208030AD
:0800E00086001F2008145328BC
:02400E00E428A4
:02401000FF3E71
:00000001FF
